:020000040800F2
:1000000000000120E94406086D4506082D44020859
:100010006D4506086D4506086D45060800000000A0
:100020000000000000000000000000006D45060810
:100030006D450608000000006D450608B54801083A
:100040006D4506086D4506086D4506086D450608B0
:100050006D4506086D45060843FD000847FD00088C
:100060004BFD00084FFD000853FD00080DB50008CA
:1000700021B5000835B5000849B500085DB5000890
:1000800071B5000885B500086D4506086D45060880
:100090006D4506086D4506086D45060857FD0008C4
:1000A0007DBD0008A1BC000891BD00088DBC000802
:1000B000C9BC0008DDBC0008F1BC00087DAB00082D
:1000C00071AB000895AB000889AB00086D450608C8
:1000D0006D4506089DBF0008A9BF0008B5BF000810
:1000E0005BFD00086D4506086D450608A5BD0008C6
:1000F0002DBD000855BD000819BD000899B50008C0
:100100006D4506086D45060805BD00086D450608E5
:10011000C1BF0008CDBF00086D450608C5CD000869
:10012000ADB50008C1B50008D5B50008E9B50008AF
:10013000FDB5000800000000000000000000000005
:1001400000000000000000000000000055C1000891
:1001500011B6000825B6000839B60008D9BF000856
:10016000ADAB0008A1AB00086D4506086D4506085B
:100170006D4506086D4506080000000000000000FF
:100180006D4506086D4506086D4506086D4506086F
:100190006D4506086D450608000000006D4506081F
:1001A0000000000000000000000000006D4506088F
:1001B0006D4506086D4506080000000000000000BF
:1001C000000000000000000000000000000000002F
:1001D0000000000000000000000000006D4506085F
:0801E00090F60500010000008B
:1001E800C48A02200201000001001400E48A0220EF
:1001F8000207000002001400048B0220020800001D
:1002080001001400248B0220010C0000000076007D
:10021800448B02200110000000007600648B02204D
:100228000112000000007600848B022001140000F7
:1002380000001E00A48B0220011A000000000D001F
:10024800C48B02200115000000000C00E48B022082
:100258000116000000000C00048C0220011B0000A5
:1002680000000E00248C0220011C000000001E006B
:10027800448C02200117000000000C00648C02204E
:100288000118000000000E00848C022001190000F3
:1002980000000C00A48C0220011E000000000C00CD
:1002A800C48C0220011F000000000C00E48C022016
:1002B8000128010000001800048D02200120000020
:1002C80000004800248D02200121000000004900A0
:1002D800448D02200122000000004A00648D0220A3
:1002E8000123000000004B00848D0220012400003F
:1002F80000004C00A48D02200125000000004D00E4
:10030800C48D02200126000000004E00E48D02206A
:100318000127000000004F00048E0220012B00007E
:1003280000002900248E0220012C01000000290071
:10033800448E0220012D010000007000648E02200E
:10034800012F000000003100848E0220012E0100E0
:1003580000005200A48E0220013001000000280095
:10036800C48E02200131010000002800E48E022022
:100378000229050000012C00048F0220023200002F
:1003880000021F00248F02200233000000021F0019
:10039800448F02200134000000003C00648F0220DA
:0803A8000137000000002000F5
:10800000836B1A6C12F0500F21D11A6C42F400727B
:108010001A641A68916811F0405F1BD19969C9B957
:10802000D16A11F4700F02D09168490512D45168D9
:1080300021F0200151601A6C22F480721A641A6CCB
:10804000D20407D41A6C42F001021A6470479B6B89
:10805000DB6C184770477047836B40221A645A6C78
:1080600042F004025A64704790F83530022B03D076
:1080700080234365012070470268052380F835306E
:108080000020136823F00103136070470268436BFC
:108090009169126803B118477047836B19684A6881
:1080A00042F400424A600022996B0A65D96B0A6566
:1080B00093F84120602A02D1202283F841207047A2
:1080C000F0B5059D06680C4FB46931EA04040CBF95
:1080D00001240024944201D000200CE03C68641B81
:1080E0009C42F1D9202380F84130002380F84230AF
:1080F00080F840300320F0BD6029012030B50468CD
:10810000039D60682B4320F07F700B4320F45930AF
:1081100043EA024320F47F7020F0030003436360CE
:1081200030BD836B0022A3F85A20A3F85220704779
:10813000436ADA0710B506D50168846A4A6822F4F2
:10814000003222434A609C0706D50168C46A4A6827
:1081500022F4803222434A60590706D50168046B35
:108160004A6822F4802222434A601A0706D5016831
:10817000446B4A6822F4004222434A60DC0606D57A
:108180000168846B8A6822F4805222438A609906CF
:1081900006D50168C46B8A6822F4005222438A60C3
:1081A0005A0610D50168046C4A68B4F5801F22F4A1
:1081B000801242EA04024A6005D14A68446C22F403
:1081C000C00222434A601B0606D50268816C5368D0
:1081D00023F400230B43536010BD0F4B984215D07E
:1081E000A3F57843984213D003F58063984211D0E9
:1081F00003F57843984208D10323084A142101FB70
:108200000322138A01339BB2138270470023F4E7E1
:108210000123F2E70223F0E70030014000000120D3
:10822000D0E907239A423CBFC1685218D01A704760
:10823000D0E9092300699A4238BF12180138D31ACD
:10824000C01A7047D0E90902131A584258417047C2
:108250000246036A4169C85C0133D1688B4228BF7A
:10826000002313627047436A8269D154436A0269EA
:108270000133934228BF0023426B4362136843F0EB
:10828000800313607047436BD86910F0100002D070
:10829000102201201A627047704770477047012012
:1082A0007047014B5868704760290120034B93F8D1
:1082B0000402C31E58425841704700BF6029012084
:1082C000012380F84930704708B5D0F8143233B133
:1082D0001B689847003818BF0120400008BD0220E5
:1082E000FCE7D0F818321BB10020C3F81402704725
:1082F00002207047D0F8302201F00F01D0F8183278
:1083000010B51C2404FB012203F50371B2F81022FE
:10831000C3F80C22D0F81C22D3F80402D26890478C
:10832000002010BDD0F81C3210B56BB1D0F8184247
:1083300094F80002FF2807D09B68214694F8012298
:108340009847FF2384F80032002010BD43230380A8
:1083500000487047500001204323038000487047C5
:10836000940001204323038000487047D800012077
:108370000A230380004870471C010120202303804A
:1083800000487047280101202023038000487047DF
:108390004801012020230380004870476801012024
:1083A0000A23038000487047880101200423014804
:1083B0000B80704794010120002370B54D1C1E46B0
:1083C000040FB0F1204F4FEA001034BF303437347F
:1083D00001F8134005F813600133DCB2A242EFD874
:1083E00070BD1A2310B50B80094BD3F8100AD3F8CF
:1083F000182A80180AD0D3F8144A08220549FFF732
:10840000DBFF042210312046FFF7D6FF024810BDE3
:108410000070F01F9A010120980101200020704790
:10842000212808B50B461BD022282BD0202815D197
:10843000A1B1072A12D11A4A1879096882F8B8013D
:1084400058799B79C2F8B41182F8BA31154B82F889
:10845000B901D3F83C320BB100209847002008BD89
:108460000029FBD0072AF9D10D4AD2F8B4111960BE
:1084700092F8B811197192F8B91192F8BA2159719C
:108480009A71EBE70029E9D0022AE7D1054AD2F830
:108490004022002AE2D0098800209047DEE700BF92
:1084A0000000012060290120EFF31182702383F383
:1084B00012880849D2B2D1E9913182F311888B42F6
:1084C00003F1FF338CBF002001205B1A03EB003067
:1084D000704700BF60290120E6E74FF400730020D9
:1084E0001380024BD3F858320B607047602901208B
:1084F000002070470120704701207047002070471E
:1085000030B414461A69A24209D30D199B69AA42D4
:1085100038BF111B0A46E11830BC57F0F9B930BC1E
:10852000704738B50025044680F8425090F8413035
:10853000292B0AD12823012180F84130212303630C
:1085400051F0A1FE84F8405038BD90F841302A2BFC
:10855000FAD12823022180F8413022230363EFE778
:10856000154B202210B5C362002304460363436306
:1085700080F8412080F842304B0711D503685A6AD1
:10858000436A591C41621A70038D4BB1013B03854C
:10859000438D013B9BB24385436C43F0040343642A
:1085A0000721204651F06FFE23681022DA61002374
:1085B00084F8403010BD00BF0000FFFF38B5304ADE
:1085C0000023044680F84230C2624385436C0B436B
:1085D000436490F84130282B07D090F84130292B84
:1085E00003D090F841302A2B21D10321204651F0AD
:1085F0004AFE282384F8413000232363214B636320
:10860000236819681A6811F480411DD022F4804251
:10861000A16B1A6008461C4B0B65002384F84030A0
:10862000FFF722FD58B30846BDE8384035E507217D
:1086300051F029FE94F84130602B02D0202384F8B9
:10864000413000232363DAE712F400420ED01A68A7
:10865000E56B22F4004228461A600B4B2B6584F828
:108660004010FFF701FD50B12846DDE794F8413096
:10867000602B02D1202384F8413084F8402038BD9B
:108680000000FFFFE5A000089B80000803689969CF
:108690001A6810B4CC0508D5140606D5446C44F00D
:1086A000010444644FF48074DC614C0508D5140661
:1086B00006D5446C44F0080444644FF48064DC61E3
:1086C000890508D5120606D5426C42F002024264C2
:1086D0004FF40072DA61436C13F00B0F03D0416C5E
:1086E0005DF8044B6AE75DF8044B704703682DE9B9
:1086F000F04F13F0010885B000F0BC81B84A9168D2
:1087000021F400019160C16A94680C43B1FA81F1CF
:108710004909946013F4002500F0AE81B04E426B1D
:10872000D6F88C40B2F5801F24F4401444EA0204C9
:10873000C6F88C4000F0A281B2FA82F2520913F41A
:108740008014019411D0DFF898C2876BDCF88C405C
:10875000B7F5800F24F4400444EA0704CCF88C40B9
:1087600000F08F81002F08BF01229C0638D59C4C59
:10877000DFF874C2276C47F080572764246C04F03C
:1087800080540394039C974C276847F480772760B4
:10879000DCF800E02768FF0540F17581904C876A9E
:1087A000D4F870E007F440791EF4407E40F0768102
:1087B000B9F5407F8A4C40F09D81D4F808C027F07D
:1087C000704E2CF4F81C2EF4407E4CEA0E0CC4F8CB
:1087D00008C0C7F30B07D4F870C047EA0C07276737
:1087E000DE060CD57E4FD7F88C4024F08074C7F895
:1087F0008C40D7F88C40066B3443C7F88C405C043F
:1088000008D5774FC66DD7F8904024F440343443F0
:10881000C7F890401F0408D5714F066ED7F89040F6
:1088200024F440243443C7F89040DE0308D56C4F4D
:10883000466ED7F8904024F440143443C7F8904073
:108840005C0608D5664FC66BD7F8904024F0030449
:108850003443C7F890401F0608D5614F066CD7F81F
:10886000904024F00C043443C7F89040DE0508D54E
:108870005B4F466CD7F8904024F030043443C7F87F
:1088800090409C0508D5564F866CD7F8904024F050
:10889000C0043443C7F890405F0508D5504FC66CFC
:1088A000D7F8904024F440743443C7F890401E0534
:1088B00008D54B4F066DD7F8904024F440643443FC
:1088C000C7F89040DC0408D5454F466DD7F8904076
:1088D00024F440543443C7F890409F0408D5404FD7
:1088E000866DD7F8904024F440443443C7F8904054
:1088F00013F400140FD0DFF8E8E0D0F874C0DEF80D
:108900009070BCF1006F27F0006708BF012247EAB2
:108910000C07CEF890705E030AD5DFF8C4E0DEF8ED
:10892000907027F0407CC76E4CEA0707CEF8907035
:108930001F020AD5DFF8A8E0DEF8907027F0805C0F
:10894000876F4CEA0707CEF890705E0140F1D78040
:10895000DFF88CE0DEF8907027F0005CC76F4CEA1F
:108960000707CEF89070002940F0CE80012A7FD111
:108970001B4B1D491A6822F080521A600F681A6852
:10898000960000F177810DB1436B23B1019B002B61
:1089900039D0836BBBBB124E4FF44035D6F88820DC
:1089A00095FAA5FE47F6C077BEFA8EFE97FAA7F7AE
:1089B000B7FA87F795FAA5F54FF0706CB5FA85F51B
:1089C0009CFAACFC0369BCFA8CFC02F44032BB405C
:1089D000476922FA0EF207FA0CF7AA403B4305E07A
:1089E0000038024000700040602901201343C6F89F
:1089F0008830D6F88C30026A23F4F853013A43EAFF
:108A00000223C6F88C304CB3436FB3F1006F25D10D
:108A10009E4D4FF07063D5F8882093FAA3F747F680
:108A2000C076B7FA87F796FAA6F64FF44034B6FA4E
:108A300086F694FAA4F4B4FA84F493FAA3F3B3FA9E
:108A400083FC02F0706203698069FA40B340A04081
:108A500002FA0CF203431343C5F888308B4B1A68B3
:108A600042F080521A6008681A68920040F108814A
:108A7000002010E041464DE62A4660E60022012132
:108A80005DE6012171E6DCF80070A7EB0E07642FAC
:108A90007FF680AE032005B0BDE8F08FCE453FF4F1
:108AA00087AED4F870E0D4F870A02EF4407E4AF47B
:108AB000803AC4F870A0D4F870A02AF4803AC4F8C0
:108AC00070A0C4F870E0D4F870E01EF0010F3FF41D
:108AD0006FAEDCF800A041F2883BD4F870E01EF0E5
:108AE000020F7FF465AEDCF800E0AEEB0A0EDE4567
:108AF000F3D9CFE7D4F808C02CF4F81C67E619B90D
:108B0000B3F1007F7FF432AFDFF880E1DFF880C19E
:108B1000DEF8001021F08061CEF80010DCF8007063
:108B2000DEF80010090100F19E80B8F1000F2AD094
:108B3000C16A41BBDEF884704FF0706898FAA8F9FA
:108B400047F6C071B9FA89F991FAA1F1B1FA81F148
:108B500098FAA8F84FF0E04AB8FA88F89AFAAAFA10
:108B60004668BAFA8AFA07F0706706FA01F1866871
:108B700027FA09F706FA0AFA07FA08F741EA0A019A
:108B80003943CEF884101DB1416BB1F5801F05D07B
:108B90000199B9B3816BB1F5800F33D1DFF8ECE007
:108BA0004FF0E048DEF8847098FAA8F947F6C071F3
:108BB000B9FA89F991FAA1F14FF0706AB1FA81F12D
:108BC0009AFAAAFABAFA8AFA98FAA8F8466807F05E
:108BD000E047B8FA88F806FA01F1C66827FA09F7FB
:108BE00006FA0AFA07FA08F741EA0A013943CEF809
:108BF0008410DEF88C70C16927F01F0701393943F2
:108C0000CEF88C109E011DD547F6C07797FAA7F7CE
:108C10004FF07061B7FA87F791FAA1F14FF0E04E8B
:108C2000B1FA81F19EFAAEFE4368BEFA8EFEBB40F9
:108C3000C7688F4081683B4301FA0EF10B4313492B
:108C4000C1F88430114B196841F080611960DCF87B
:108C50000070196809013FF589AEDCF80010C91BE6
:108C60006429F6D916E7DCF80010C91B64297FF6E1
:108C700057AF0FE70A68D21B642A7FF680AE09E778
:108C80000A68121A642A7FF6EFAE03E70038024042
:108C9000602901202DE9F34106690546C3680C46A9
:108CA0004FF000481E4016B902B0BDE8F081B6FA98
:108CB00086F328FA03F21B3BD24316402A61002CAC
:108CC00040D0042BEFD8DFE803F039332D26030022
:108CD0002369EF6A2BB19B681BB1B9B204F108009C
:108CE0009847A36A2BB19B681BB1B9B204F120006D
:108CF0009847236C2BB19B681BB1B9B204F13800C3
:108D00009847A36D002BCED09B68002BCBD0B9B277
:108D100004F1500004E0236904F10800696B5B680A
:108D20009847C0E7A36A04F12000A96B5B68F7E7E6
:108D3000236C04F13800E96B5B68F1E7A36D296CE3
:108D40005B68E5E7042B06D8DFE803F00D0B0907A5
:108D50000300EB6A0193019BA5E76B6BFAE7AB6B32
:108D6000F8E7EB6BF6E72B6CF4E737B5224B002501
:108D7000224C234AC4F8883242F20F7304F5227061
:108D8000C4F89852C4F894321E4BC4F89052D3F8E9
:108D9000BC31B3FBF2F3013BC4F88C3251F0F8F96B
:108DA000194B062137201A6C42F020021A641B6C02
:108DB00003F020030193019B4EF058FD134B4FF439
:108DC000000228465A60D4F88832DA6842F001027C
:108DD000DA601A6842F001021A60D4F820320C4AB4
:108DE000C3F81052C3F808220A4AC4E98F55C3F8E1
:108DF000042203B030BD00BF0014004060290120F0
:108E000080841E00000001200038024000E100E0E4
:108E1000286A0120285A0120436BDA69910670B54F
:108E2000044613D5586AE36AC0B2002B4AD0216BBE
:108E30009847636B1A6822F480721A609A6822F06D
:108E400001029A609A6942F008029A61636BDA69DA
:108E5000D20701D501221A62DA69960701D50222EA
:108E60001A62DA69550701D504221A62DA69100715
:108E700001D508221A62DA6911060ED594F89D20F0
:108E8000212A0AD0D4E909128A4227D10022A4F863
:108E900086201A6822F080021A60DA69520640F1D0
:108EA0009280DA6904F13400196816079D6821D1AF
:108EB000960640F189808D0640F18680BDE87040BD
:108EC00050F0BABFE3696269D054E369E2680133E4
:108ED000B3FBF2F102FB1133E361AAE7A169895CFC
:108EE0000132C9B299622169B2FBF1F001FB102293
:108EF000A262D2E705F0010501F490762E4363D01B
:108F0000D60709D5CE0507D501261E62D4F8A06084
:108F100046F00106C4F8A060960708D53DB10226C8
:108F20001E62D4F8A06046F00406C4F8A06056079C
:108F300008D53DB104261E62D4F8A06046F00206B2
:108F4000C4F8A06016070AD501F020062E4306D00B
:108F500008251D62D4F8A0302B43C4F8A030D4F803
:108F6000A03083B3960603D58D0601D550F064FF7B
:108F7000D4F8A020636B110703D49A6812F0400262
:108F80001FD01A6822F490721A609A6822F00102C7
:108F90009A60202284F89E209A68520613D59A6817
:108FA000D4F8981022F040029A6061B1254B08462F
:108FB0000B65FFF759F830B10846BDE87040FFF780
:108FC000B0B8C4F8A02070BD16062ED50D062CD55D
:108FD00094F89D20212AF6D1B4F8862092B242B9A5
:108FE0001A6822F080021A601A6842F040021A6081
:108FF000E9E7E16BD4F88020B1F5805F0FD1616CB7
:1090000069B932F8021BC1F308019962C4F88020E3
:10901000B4F88630013B9BB2A4F88630D3E7511CEC
:10902000C4F8801012789A62F2E75006CBD54A064F
:10903000C9D51A6822F040021A60202384F89D30B6
:10904000C1E700BF2381000870B500260E4CD4F89C
:10905000C832002BFBD000250AE012F8016B013B5F
:109060004FF00105C4F8C822636007D150F048FBF7
:109070006368D4F8C8221BB1002DEED0304670BD15
:10908000002DE4D0FAE700BF6029012008B5054AA9
:109090000B68C2F8C80253600BB950F031FB0020D6
:1090A00008BD00BF6029012090F84820531C0244ED
:1090B000DBB280F8483082F8341090F849200AB1C9
:1090C000132B01D950F011BC7047002280F84920C1
:1090D00050F00BBC38B50446D0F83002237C93BB6B
:1090E0004FF400730222812150F080FB4FF4007393
:1090F00002220121D4F8300250F078FB0823032229
:109100008221D4F8300250F071FB4FF4077058F010
:1091100029F90546C4F81802F0B1D4F81C321B68CE
:1091200098470023C5F81432C5F81832237C8BB950
:109130004FF40073D4F830020121D5F8042250F026
:10914000BDFA002038BD40230222812150F04EFBA1
:109150004023CDE74023EDE70120F3E710B50446B7
:109160008121D0F8300250F0FEFA0121D4F830020B
:1091700050F0F9FA8221D4F8300250F0F4FAD4F821
:10918000183253B1D4F81C325B689847D4F81802EF
:1091900058F0F0F80023C4F81832002010BD10B5C4
:1091A00004460121D0F8300250F0DDFA8121D4F8D4
:1091B000300250F0D8FAD4F8280258F0DBF800203A
:1091C000C4F8280210BD70B50B7804460D46D0F8DF
:1091D000186213F0600228D0202A1FD1CA8848786C
:1091E000F2B11B060AD5D4F81C3231469B68984769
:1091F000EA883146204650F06DFB0FE0032386F8E5
:10920000012286F800020021C4F8F4311346D4F894
:109210003002C4E94222324650F050FA002070BDBC
:10922000D4F81C329B689847F8E74B780A2BF5D1A5
:1092300001220149DFE700BF2C2C012070B5044654
:10924000D0F83002237C93BB4FF40073022201213B
:1092500050F0CCFA4FF4007302228121D4F830028E
:1092600050F0C4FA4FF41B7058F07CF80646C4F86E
:10927000280218B30025D4F82C320581A0F85C52DE
:1092800028461B6898470121D4F8300250F08FFD22
:109290008121D4F8300250F08AFDD4F830021F2327
:1092A00006F50372012150F009FA284670BD4023EB
:1092B0000222012150F09AFA4023CDE70120F5E780
:1092C00070B5D0F82852044695F818324BB9D5F845
:1092D000143233B16B7A23B90121D0F8300250F047
:1092E00051FB8121D4F8300250F04CFB6B7A022BF9
:1092F00009D105F50372D4F830021F230121BDE81E
:10930000704050F0DBB970BD70B50E4B0446D0F81C
:109310002852C5F82C32002385F8381205F50B7257
:109320002B7281210D23D0F8300250F0FDF905F5A4
:109330000372D4F830021F230121BDE8704050F0C1
:10934000BDB900BF555342532DE9F0410B78044697
:10935000D0F8285213F0600234D0202A19D14A786C
:10936000FE2A05D0FF2A19D050F04AFB022011E056
:109370004A888AB9CE88012E0ED11A060CD5D0F8AB
:109380002C329B699847324628602946204650F087
:10939000A1FA0020BDE8F0812046E5E74A88002ACE
:1093A000FAD1CA88002AF7D11B06F5D44FF480738E
:1093B00005F5037201212B811F23D0F8300250F0F4
:1093C0007DF9E6E74E780A2E28D00B2E29D0012E03
:1093D000DFD18F8891F80480D0F830027FB2414607
:1093E00050F0E5FCD4F83002414650F0BCF9002FB3
:1093F000D4F83002237C19DAB3B94FF40073022297
:10940000812150F0F3F96B7A022B17D18121D4F826
:10941000300250F0B7FA00236B72BAE70122291D1F
:10942000B5E78B786B60B4E74023E8E723B94FF4E6
:10943000007302223146E4E74023FAE7002FA8DA5E
:10944000012BA6D001212046FFF75EFFA1E72DE901
:10945000F743137805460E4617462F2BD0F82842BF
:109460003CD8192B08D8032B68D0122B00F08F8022
:10947000002B49D02022F6E11A3B152BFAD801A285
:1094800052F823F0CB950008C795000875940008A2
:1094900075940008C7950008759400087594000835
:1094A0007594000875940008ED95000875940008FF
:1094B0003D9600087594000875940008759600089C
:1094C0007594000851970008759400087594000879
:1094D00075940008759400085D9800085A2BC9D14E
:1094E0000823BF4A6381D2F80730E360D2F80B301B
:1094F0002361D0F82C320846DB689847D0B1E37B73
:1095000063F07F03E37315E0D4F81432002BB1D17C
:10951000D0F82C3208469B68984750B13A22022175
:10952000D5F8280250F0BBF9052323724FF0FF3025
:1095300001E06081002003B0BDE8F083112200212A
:1095400004F10D0057F004FE702394F85D2223739C
:109550000C23E37494F85C329A4211D004EBC302FA
:10956000013392F83C12DBB2A173042B92F8411242
:1095700008BF0023217692F8402284F85C3262769C
:10958000122363813B79122BD4D86381D2E75378BD
:10959000DB0715D4D0F82C3201EBC1061279DB6958
:1095A00003EB860633790533934228BF1346638164
:1095B000002BBFD0013B9BB2F15CE2181173F7E7BF
:1095C0000723874EF3E70023DFE7082363810023A7
:1095D000E3602361D0F82C320846DB689847002806
:1095E000A8D0A37B63F07F03A373A3E700230DF14F
:1095F000020201A9E36023616361D0F82C32304696
:109600005B68984730B13A220221D5F8280250F021
:1096100046F98BE70823E373019B013B1A0EE374C1
:1096200022741A0C62741A0ABDF80230A274022263
:109630005BBAA282E3820C2363817CE7D0F82C32F0
:1096400004F25E2204F5187130465B6898470028E2
:10965000D9D1D4F860322082013B1A0EE373227311
:109660001A0C62731A0AB4F85E32A2735BBA638290
:1096700008238AE7237A73BB94F91832002BBFF6CC
:10968000F9AED0F82C3208469B6898470028BAD12A
:10969000D7F80220D5F8280212BAD0F86012C4F820
:1096A0006422B7F807305BBA9BB29F18C4F86832DF
:1096B0008F4277D802212172B4F85E124A434B439D
:1096C000C4F86422D4F81422C4F86832934202D059
:1096D000202205219BE74FF40073D5F82C0263810B
:1096E000D5F82842D0F810903046D4F8687204F1CA
:1096F0000C08B4F85E229F42D4F8641228BF1F46BB
:10970000B7FBF2F3B1FBF2F29BB24146C847002827
:1097100002DA1122042178E7BBB242468121D5F852
:10972000300250F001F8D4F86432D4F834223B44CB
:10973000D21BC4F86432D4F86832C4F83422DB1B7C
:10974000C4F86832002B7FF4F5AE03232372F1E6F0
:10975000237A002B46D194F91832002BFFF68AAEFB
:10976000D0F82C3208469B68984700287FF44BAF0E
:10977000D5F82C323046DB68984708B1272243E7FA
:10978000D7F80220D5F8280212BAD0F86012C4F82F
:109790006422B7F807305BBA9BB29E18C4F86832EF
:1097A0008E4201D9212294E7B4F85E124A434B431A
:1097B000C4F86422D4F81422C4F86832934287D1E2
:1097C000B3F5007F4FF0010104F10C0228BF4FF404
:1097D000007321729BB2D5F830024FF06FFFA9E6FB
:1097E000206D0608D4F8687204F10C08B4F85E2203
:1097F000B7F5007FD4F86412D0F82C0228BF4FF4DC
:109800000077D0F814903046B7FBF2F3B1FBF2F2D8
:109810009BB24146C847002801DA03227AE7D4F810
:1098200064323B44C4F86432D4F86832D91BD4F8AB
:109830003432DB1BC4F86812C4F8343219B9284634
:10984000FFF762FD76E6B1F5007F0B4642464FF02A
:10985000010128BF4FF400739BB2BCE77B7813F083
:10986000020303D0242205212046D0E6D4F8641256
:10987000B4F868220A44D4F860128A427FF685AEB2
:109880002122F0E7D0F8281210B50B7A0446022BFB
:1098900007D0033B012B02D80021FFF735FD002044
:1098A00010BD01F21B2291F81912FFF7D0FD00281C
:1098B000F5DA01212046F0E770B5D0F828420546D8
:1098C000267A1EB1012E55D0002070BDD4F810327A
:1098D000C4F83032D4F81432C4F83432D0F830320C
:1098E000B3F82C321F2B0DD1D4F80C22264B9A4200
:1098F00008D194F81912012904D894F81A32013BBE
:109900000F2B0AD92022052120464FF0C8FF022341
:1099100063722846FFF7D4FCD6E704F21B22FFF758
:1099200096FD0028237A06DA052BF2D1012128467C
:10993000FFF7EAFCC8E7013B022BC5D96189002982
:10994000F5D0D5F82822D2F8143282F838628B424A
:1099500028BF0B46D2F83412C91A9BB2C2F834128F
:109960000421117204F10C028121D5F830024FF06C
:10997000DBFEA9E704F21B2294F81912FFF767FD3A
:109980000028A1DAD2E700BF5553424310B50120A9
:109990000C4609F01DF8054B1221A3F11402218099
:1099A000022814BF1846104610BD00BFD401012084
:1099B00008B520B903484DF051FD034808BD0348E0
:1099C000F9E700BF10250708302C012031250708D2
:1099D000024808B54DF042FD014808BD5225070870
:1099E000302C0120024808B54DF038FD014808BD73
:1099F00057250708302C0120024808B54DF02EFDF0
:109A0000014808BD62250708302C0120002008B558
:109A10004DF0F0FD002008BD2DE9F843089D894672
:109A200090460021202204461F4657F091FB4DB17D
:109A30002B681A0CE3816B682282E3821A0C6B8913
:109A400022836382484659F03BFC18F0100F02D184
:109A5000451E6B1C3DD1082802464FF0FF354FF0E4
:109A60000006A8BF08224FF02033494620460135A2
:109A70002360636055F04CFF1E4B04F10800324632
:109A800009EB05012381837055F042FF611EE21D41
:109A900011F8013FA3F1610019289CBF203B0B7016
:109AA0009142F5D104F10A0211F8013FA3F16100DE
:109AB00019289CBF203B0B709142F5D1182384F8E4
:109AC0000B80678323733B0CA382099BE361BDE892
:109AD000F88319F805302E2B01D0013DB9E7461B5C
:109AE000082D2A4606F1FF36A8BF0822032EA8BF7C
:109AF0000326B8E7202020002DE9F04F0D46DFF8BF
:109B0000CC9385B00120043590469A464DF072FD05
:109B10002C1FBAF1000F06D150464DF06BFD504698
:109B200005B0BDE8F08FD9F87062464500F2A38019
:109B3000A8EB0606D9F88072F3083A6B06F0070620
:109B40000233934202D3BA6B934219D9394618466D
:109B500003934DF017FC039B074678B9A5F1080362
:109B6000D34905F5FC7243F8041F9342FBD10AF177
:109B7000FF3A08F1010805F50075C9E7C9F8800248
:109B80003A79002A5ED04FF400720021204657F047
:109B9000DFFA3B6C002E3FD105F11C0BCDE90066CE
:109BA00013BB33460822D9F85C122046FFF734FF76
:109BB0004FF4F0737E6C5C4604EB030B002ED6D0A2
:109BC0005C45D4D0327904F12007316806F11C00DD
:109BD000336B7AB30022CDE90002112220463C46C5
:109BE000FFF71AFFB66CE9E73B6B1122B14920463B
:109BF000FFF712FF3B6C1A6CCDE9006652B9334691
:109C000058461122AC4905F13C0BFFF705FF4FF414
:109C1000E073CFE71B6BF3E7002B14BF0223012394
:109C2000C3EB06137E6C16B1013BB66CFBD14FF44F
:109C30000073C1E796F805C03269CDE900024CF027
:109C40002102CBE7D7F828B0BBF1000F06D14FF4C3
:109C500000720021204657F07BFA88E73A6B4FF4F8
:109C6000007120469B1AFA6806EBC3063B4602EBDE
:109C70004622D8477BE7B8F1000F63D14FF400725A
:109C80004146204657F064FA80238C4985F8BA3162
:109C90000C2385F8BE31D9F86022D9F858328A42AF
:109CA000C4F8C621C4F8CA3118DDFF2285F8BB21EB
:109CB00085F8BD2185F8BC21013B804A934227DD10
:109CC000FF2385F8BF3185F8C13185F8C0315523B0
:109CD00085F8FA31AA2385F8FB3148E73F2143F69E
:109CE000C16492FBF1F192FBF4F4C1EB811685F8AB
:109CF000BD41A010921B20F03F000132024385F8C5
:109D0000BC21FF2291FBF2F2114485F8BB11D3E78D
:109D10003F2243F6C16093FBF2F293FBF0F0C2EBFB
:109D2000821485F8C10181101B1B21F03F01013312
:109D30000B4385F8C031FF2392FBF3F31A4485F8F7
:109D4000BF21C4E7D9F86432984536D152230026A2
:109D5000412272212370284663706123E270A37050
:109D600084F8E731D9F8783284F8E411C4F8E8319E
:109D70004FF0FF3384F8E511314684F8E6214FF4C3
:109D8000F07284F8EC3184F8ED3184F8EE3184F827
:109D9000EF3157F0DDF95523C5F8EC61C5F8F061F6
:109DA000C5F8F46184F8FE316FF0550384F8FC6166
:109DB00084F8FD6184F8FF31D9E6D9F8603298451E
:109DC00069D14FF4007200212046082657F0C0F9EF
:109DD000EB233B4AF82105F8043C582305F8033CE3
:109DE000902305F8023C136845F8013C53680222B1
:109DF000C5F8033000232273E3726E72A273E3731B
:109E000069743F212A7321764FF0FF31D9F860023F
:109E1000A1763E2184F82C2001222177D9F858120E
:109E20006376091AE37663772162A377E37784F890
:109E30002D3084F82E3084F82F30D9E99A01091A90
:109E4000616284F8302084F83130802385F84260E4
:109E500085F83C30292385F83E30942385F83F303F
:109E60000E2385F840300D2385F84130154B1A68D4
:109E7000C5F843205A68C5F847201A899B7AA5F887
:109E80004B20114A85F84D301368C5F84E305368A1
:109E9000C5F852301BE7D9E99A13884518D398457D
:109EA00019D2A8EB010120464DF090FA5FE600BF01
:109EB000DEADBEEF9771070896710708FF03FB0040
:109EC00070250708792507088525070860290120DE
:109ED0009845FFF4BCAEA8EB0301E4E713460A463D
:109EE0000146184635F054B982B0054A0190106811
:109EF000136801991B1A8B42FAD302B0704700BF56
:109F000060290120002807DB4109012300F01F0020
:109F1000024A834042F82130704700BF00E100E070
:109F20002DE9F74F0023DFF89C814FF00F09634ABA
:109F3000012404FA03FA0C680AEA04053AEA040464
:109F400040F0A7804C6824F0100EBEF1020F11D132
:109F5000DF0803F0070C00EB87074FEA8C0C3E6A22
:109F600009FA0CFB26EA0B0B0E6906FA0CF646EA18
:109F70000B063E624FEA430C0326D0F800B00EF108
:109F8000FF3E06FA0CF7BEF1010F2BEA070B6FEA52
:109F9000070604F0030707FA0CF747EA0B07076008
:109FA00010D8876806EA070ECF6807FA0CF747EA69
:109FB0000E078760476827EA0A0E27099F4047EA8D
:109FC0000E074760C76837408E6806FA0CF63E43B6
:109FD000C660E6005DD5D8F8446023F0030703F0BF
:109FE000030C46F4804607F180474FEA8C0CC8F812
:109FF000446007F59C37D8F8446009FA0CFE06F473
:10A0000080460196019EBE6826EA0E0E2C4EB04296
:10A0100046D006F58066B04244D006F58066B04270
:10A0200042D006F58066B04240D006F58066B04268
:10A030003ED006F58066B0423CD006F58066B04260
:10A040003AD006F58066B04214BF0826072606FA05
:10A050000CF614F4803F46EA0E06BE606FEA050770
:10A0600016680CBF3E402E4314F4003F166056683D
:10A070000CBF3E402E4314F4801F566096680CBF00
:10A080003E402E43A4029660D66854BF3E402E4305
:10A09000D6600133102B7FF44BAF03B0BDE8F08FD7
:10A0A0000026D4E70126D2E70226D0E70326CEE732
:10A0B0000426CCE70526CAE70626C8E7003C01408F
:10A0C000000002400038024003689A69910701D5F8
:10A0D00000229A629A69D20703D49A6942F0010277
:10A0E0009A61704770B590F8403004460D461646A8
:10A0F000012B00F01681012380F84030CB0640F19F
:10A100009580D00640F19280638D9BB2002B40F089
:10A110008580E36AB3F1007F03D0E36AB3F1007F87
:10A1200068D194F84130282B64D129462046FEF7A7
:10A1300017FAAB065AD5B00658D526682023072152
:10A140002046F3610823F36150F09DF873682046C0
:10A1500043F400437360736823F0FF7323F48B337D
:10A1600023F4FF7323F001037360FFF7ADFF33683F
:10A17000590402D433681A0409D594F84130212BCC
:10A180000CBFA36BE36B1B685B689BB26385638D3D
:10A190009BB21BB1636C43F0040363646B0710D57F
:10A1A000636A726A591C61621A70238D4BB1013B5C
:10A1B0002385638D013B9BB26385636C43F004038D
:10A1C000636400232363636384F84230636C002B71
:10A1D00000F09A80616C2046FEF7F0F994F8413067
:10A1E000282B03D129462046FEF7BAF9002084F82F
:10A1F000400070BDE26A236812F5803F0BD094F8EE
:10A200004120292A07D110222046DA61FFF75CFF9E
:10A21000FEF787F98DE71022DA618AE723681022BA
:10A22000DA61636C43F00403636482E769071DD558
:10A2300072071BD5638D9BB263B123685A6A636A48
:10A24000591C61621A70238D013B2385638D013B8C
:10A250009BB26385638D9BB2002B7FF46AAFE36A88
:10A2600013F5803F3FF465AF2046D1E72B072CD58F
:10A2700030072AD594F84130226803F02803282BB0
:10A2800020D1936991699368D068E068022813D15E
:10A29000C3F3C21383EA114313F006030CD1A16C7C
:10A2A0000131A164A16C02297FF443AF0821A364AA
:10A2B000D16184F840303CE7042120464FF0E3FFB1
:10A2C0000023F6E70823D361FAE7A9077FF531AF4A
:10A2D000B2077FF52EAF638D9BB26BB1636A5A1CD8
:10A2E000626222681B789362638D013B9BB2638537
:10A2F000238D013B23851CE7E36AB3F1807FB3D054
:10A30000E36A002BB0D014E7E36A13F5803F05D071
:10A31000054BE362202384F8413067E794F841302D
:10A32000F8E7022065E700BF0000FFFF194B9A68BD
:10A3300002F00C02042A28D0082A28D15A68596849
:10A3400002F03F02586811F4800F47F6C07191FA8D
:10A35000A1F3B3FA83F300EA010020FA03F014BF7B
:10A360000D4B0E4BB3FBF2F358430A4B4FF4403204
:10A370005B6892FAA2F2B2FA82F203F44033D3405D
:10A3800001335B00B0FBF3F07047034870470348AC
:10A39000704700BF0038024000127A000024F40029
:10A3A000094B4FF4E0529B6892FAA2F2B2FA82F2A1
:10A3B00003F4E053D340054A1344054ADB7BD2F84B
:10A3C000BC01D840704700BF00380240206D06082D
:10A3D00000000120094B4FF460429B6892FAA2F200
:10A3E000B2FA82F203F46043D340054A1344054AAB
:10A3F000DB7BD2F8BC01D840704700BF0038024078
:10A40000206D06080000012038B505460468C369C0
:10A410002969AA6820680A4369690A4376491A4388
:10A420000140286A0A43E9682260626822F44052C7
:10A430000A436260AA69A168024321F430610A43B9
:10A44000A2606E4A944214D102F59432D2F8902060
:10A4500002F00302022A00F0BB80032A00F0AF8062
:10A46000012A69D0B3F5004F00F09680FFF7B2FFE4
:10A4700013E0634A944224D102F5FA32D2F89020D4
:10A4800002F00C02082A00F0A3800FD8002A53D152
:10A49000B3F5004F79D0FFF783FF6B6800EB5300F3
:10A4A000B0FBF3F080B2E0600020A4E00C2A00F0E2
:10A4B0008680B3F5004F4FF0010040F09C800023F0
:10A4C00093E0504A94420AD102F5F832D2F8902033
:10A4D00002F03002202A7BD0D8D9302AE7E74A4A56
:10A4E00094420AD102F5F632D2F8902002F0C0026E
:10A4F000802A6DD0CAD9C02AD9E7444A94420CD1E7
:10A5000002F5F432D2F8902002F44072B2F5007FE6
:10A510005ED0BBD9B2F5407FC9E73D4A944214D121
:10A5200002F59232D2F8902002F44062B2F5006F48
:10A530004ED007D8002A95D0B3F5004F39D1FFF798
:10A54000F5FE24E0B2F5406FB1E7324A94420CD1F7
:10A5500002F5E032D2F8902002F44052B2F5005FEA
:10A5600036D093D9B2F5405FA1E72B4A9442A0D1EF
:10A5700002F5DE32D2F8902002F44042B2F5004FEC
:10A5800026D083D9B2F5404F91E7FFF709FF6A68FB
:10A59000530803EB400324E0FFF71CFFF7E75308E1
:10A5A00003F5740303F51053B3FBF2F39BB2E360BE
:10A5B0007AE7FFF7BBFE70E703F50043F4E7B3F576
:10A5C000004F6A684FEA5203F6D103F5803308E082
:10A5D000B3F5004F6A68E2D1530803F1F47303F551
:10A5E00090430020B3FBF2F39BB223F00F02C3F3BE
:10A5F00042031343E36038BDF369FFEF00100140ED
:10A600000044004000480040004C00400050004022
:10A610000014014000780040007C0040034B0B44D4
:10A62000DA7D835823F0010383507047206D0608BC
:10A63000F8B50469202345681F2C2BD9A4F120010B
:10A640006A688B40134224D08269137C022B01D1AB
:10A65000002313745768124E3B69D268C3F3032377
:10A66000506806EB8303196AFFF7D8FF7A793968D7
:10A670001F2C06EB4206CB68B6F8402002F4F052DD
:10A6800023EA0203CB604FF0200306D9203CA3400D
:10A69000EB60F8BD2A68A340D4E7A340AB60F8E7BD
:10A6A000206D0608A248A34AA349121A70B5A4B0A7
:10A6B00055F02EF9A14A0020D2F8883043F47003F7
:10A6C000C2F888309E4B196841F00101196098600A
:10A6D000196821F0847121F4803119609949596019
:10A6E000196821F4802119609749D8609160BFF3FF
:10A6F0004F8FBFF36F8FC2F85002BFF34F8FBFF37E
:10A700006F8F516941F400315161BFF34F8FBFF337
:10A710006F8F1A6C42F080521A641A6C02F08052E9
:10A720000292029A894A116841F44041116012680C
:10A7300002F440420192019A9A6802F00C02042A43
:10A7400007D09A6802F00C02082A65D15B685B02A8
:10A7500062D57B4B1B687A4A936803F00C03082B85
:10A7600068D013687A4C23F08073136021681368F3
:10A770009D0160D447F6C07090FAA0F04FF44033CA
:10A78000B0FA80F093FAA3F34FF0706191FAA1F15F
:10A790004FF4D873B1FA81F18340092000FA01F136
:10A7A0000B4343F0015343F008035360136843F035
:10A7B00080731360624B21681A68900140D51A6C4F
:10A7C00042F080521A641B6C03F080530393039B86
:10A7D0005E4B1A6842F480321A6021685A68D203CC
:10A7E00033D51A6842F400321A60584A2168536817
:10A7F0009B0330D54FF400134FF4C07C04A804939E
:10A800004FF0006321930723CDE908C303230A9384
:10A81000FDF76CFF28B3FEE7494B4D491A6842F437
:10A8200080321A6008681A68960394D40A68121A6B
:10A83000642AF8D9FEE723685B1A022B97D9F9E757
:10A840002268521A022AB7D9F4E72268521AB2F5DE
:10A850007A7FC3D9FEE723685B1AB3F57A7FC6D93E
:10A86000F8E73C4A136803F00F03062B0AD8136875
:10A8700023F00F0343F007031360136803F00F0383
:10A88000072B53D12E4B9A6822F0F0029A601A6877
:10A8900090014BD59A6841F2883022F0030242F0D1
:10A8A00002029A6021689A6802F00C02082A39D1E3
:10A8B000284A1368190755D4214CA36823F4E053A0
:10A8C00043F4A053A360A36823F4604343F400431C
:10A8D000A360FFF72BFDA368F02292FAA2F2B2FA6E
:10A8E00082F203F0F0031C4ED3401C4D334493F826
:10A8F0004830D840C5F8BC014CF0E6FF184B04A81E
:10A9000004930023CDE91333CDE91533CDE9173393
:10A91000CDE91933CDE91B33CDE91D33FDF7E6FE53
:10A9200060B3FEE72268521A8242BCD9FEE700BF3C
:10A9300000000000E0280000B085070800ED00E0FE
:10A940000038024010300024000000080070004071
:10A9500060290120003C0240206D06080000012013
:10A96000C0FF0300136823F00F0343F007031360D5
:10A97000136803F00F03072B9ED0D7E7D4F88C3071
:10A9800023F08073C4F88C30D4F88C3043F080739B
:10A99000C4F88C30A36803F00C03042B27D0082BD9
:10A9A00027D16368626813F4800F636802F03F0286
:10A9B00018BF1249C3F3881308BF1149B1FBF2F263
:10A9C0005343104A5268C2F3014201325200B3FBB2
:10A9D000F2F30C4A9268C2F30312164496F8482028
:10A9E000D340094A9342C5F8BC3104D0FEE7034B7B
:10A9F000EFE7034BEDE724B070BD00BF00127A0013
:10AA00000024F4000038024000E6DF0C2DE9F84392
:10AA1000036807468846524EC3F30D04002C54D1F8
:10AA2000504A93421ED302F58042934219D302F555
:10AA30008042934254D34C4A934253D902F5803218
:10AA4000934251D902F5003293424FD902F50032B8
:10AA500093424DD902F5003293424BD9052009F0BB
:10AA6000DEFF012496F8E433012B48D0012386F859
:10AA7000E4334CF0A5FE814600283DD13B4D2B69C7
:10AA800023F440732B612B6943F400732B612B6912
:10AA900023F0F8032B61782393FAA3F3B3FA83F33B
:10AAA0002A699C40144344F002042C612B6943F44E
:10AAB00080332B61BFF34F8F4CF082FE2B6923F064
:10AAC0007A032B61F8B986F8E40396F8E433D7F8F3
:10AAD0000090012BD8F8008018D16FF0010010E031
:10AAE0000224BFE70324BDE70424BBE70524B9E73C
:10AAF0000624B7E70724B5E7002386F8E4334FF0D0
:10AB0000FF30BDE8F88386F8E493F8E7012386F880
:10AB1000E4334CF055FE054618B1002386F8E433C3
:10AB2000DBE7124C236923F440732361236943F468
:10AB300000732361236943F001032361C9F8008096
:10AB4000BFF34F8F4CF03CFE236923F001032361D8
:10AB500086F8E4530028C0D13B6804333B60D0E75B
:10AB60006029012000400008FFFF0008003C02406F
:10AB70000148FDF78BBD00BF502D01200148FDF7B6
:10AB800085BA00BF502D01200148FDF77FBD00BFF1
:10AB9000A02D01200148FDF779BA00BFA02D0120AA
:10ABA0000148FDF773BD00BFF02D01200148FDF7FE
:10ABB0006DBA00BFF02D01202DE9F0478F4F4FF007
:10ABC0000C08064608FB0078D8F8E841002C00F095
:10ABD0000F8198F8EE014CF0EBFC98F8EC0106F0D0
:10ABE000DFFD054698F8ED0106F0DAFD731C80469E
:10ABF000DBB21DB140F60C122B72EA80B8F1000FE7
:10AC000005D040F60C2288F80830A8F8062028461F
:10AC10004FF0090A05F0E5F9404605F0E2F9112187
:10AC2000284606F071FD1121404606F06DFD4FF0FB
:10AC3000650903E00520002109F0CCFE284605F057
:10AC4000BFF910B9B9F10109F4D1284606F0A4FC06
:10AC50000021052009F0BEFE284605F0C2F90520B6
:10AC6000002109F0B7FEBAF1010AE0D128464FF001
:10AC70000C0906F091FC0021052009FB067909F07A
:10AC8000A9FE404606F088FC0021052009F0A2FE3E
:10AC9000284605F0A6F90021052009F09BFE404654
:10ACA00005F09FF999F8F2A128463E215246544DED
:10ACB00006F050FD524640463E2106F04BFD502323
:10ACC00003FB0653C3F8F043FFF76AFB99F8EF3133
:10ACD000022B00F08F80032B00F08E80012B14BF1D
:10ACE0004FF4C8714FF448714CF0D6FB502200214C
:10ACF0004FF0010C02FB0653C3E9FE1CC3F800141D
:10AD0000C3F80414C3F80C14C3F8101493F83114E6
:10AD1000C3F8F40301F0FF0C09B983F830C402FB57
:10AD200006524FF0240C20F0706082F831C4236882
:10AD300023F0010323602061A36823F40043A36090
:10AD40004FF40043A360636843F0007343F400438F
:10AD50006360E36823F40043E360D2F808341B0225
:10AD6000E36000232360216841F00101216020217C
:10AD7000C2F8343482F83114C2F8203482F8323404
:10AD800092F831142029C8B217D192F83014012951
:10AD900013D082F831C4216821F0010121602168BB
:10ADA00021F48051216021682160216841F0010176
:10ADB000216082F8310482F830340C23022103FB35
:10ADC000067797F9F14120464CF050FD2046FFF7F9
:10ADD00099F897F9F041022120464CF047FD2046B2
:10ADE000FFF790F8502303FB0655012385F8EC3359
:10ADF000BDE8F087642177E7C82175E700000120EE
:10AE0000602901202DE9F04F9A4685B0431C074682
:10AE1000039288469DF83C2008D0C84E502303FB7F
:10AE2000006393F8ECB3BBF1000F05D14FF0000BBA
:10AE3000584605B0BDE8F08F039BFF2B03D0BAF155
:10AE4000000F40F0BA80002A00F0B78050247C4305
:10AE5000351995F83134202B40F0F78095F83034CF
:10AE6000012B00F0F280B64B0122D6F800904FF48F
:10AE700000411C4485F830241923CDF80090204669
:10AE8000FDF71EF9002840F0E080212308FA02F8BF
:10AE9000C5F8240485F83134102385F832340E9B2C
:10AEA000C5F83404C5F81434A5F81AA4B5F81A3452
:10AEB0009BB2FF2B30D94FF40053FF22A5F8182482
:10AEC00000934FF0807350254146204605FB0765EF
:10AED000FDF714F9B5F81A34494620469BB23BBB3E
:10AEE0004CF026FC38BBD5F8F0332021D9615A68E4
:10AEF00022F0FF7222F48B3222F4FF7222F0010260
:10AF00005A60502385F8311403FB0766002385F847
:10AF1000320486F830348BE7B5F81A244FF4005326
:10AF200092B2A5F81824D2B200934FF00073CAE78A
:10AF30004CF022FC10B1D5F8343486E0D5F8143446
:10AF40005A1CC5F81424D5F8F0231B789362B5F881
:10AF50001824B5F81A34013A013B92B29BB2A5F815
:10AF60001824A5F81A34002AB4D1B5F81A349BB2C3
:10AF7000002BAFD00A2380212046CDF80090FDF7AA
:10AF80009FF8002861D1B5F81A349BB2FF2B0AD97B
:10AF9000FF224FF08073A5F8182400904146204608
:10AFA000FDF7ACF896E7B5F81A244FF0007392B2AB
:10AFB000A5F81824D2B20090F0E750247C4335194C
:10AFC00095F83134202B40D1BAF1000F3DD095F8DF
:10AFD0003034012B39D05A4B0122D6F800904FF46F
:10AFE00000411C4485F830241923CDF800902046F8
:10AFF000FDF766F848BB212308FA02F8C5F82404D7
:10B0000085F831344023414685F832340E9BC5F82B
:10B0100034042046C5F814344FF40053A5F81AA49C
:10B0200000934FF08073FDF769F8494620464CF0D5
:10B03000A3FB024698B1D5F83434502303FB0763D1
:10B04000D3F83424002283F83024B6F8DC343846B0
:10B0500001339BB2A6F8DC34FFF7AEFDE6E6D5F887
:10B06000F0332046039999620A238021CDF800909D
:10B07000FDF726F80028E0D1B5F81A349BB2FF2B73
:10B0800009D8B5F81A244FF0007392B2A5F8182425
:10B09000D2B2009005E0FF224FF08073A5F818248B
:10B0A00000904FF0500A414620460AFB0765FDF725
:10B0B00025F8494620464CF05FFB20B10AFB076AA1
:10B0C000DAF83434C1E7D5F814345A1CC5F814241E
:10B0D000D5F8F0231B789362B5F81824B5F81A3424
:10B0E000013A013B92B29BB2A5F81824A5F81A3494
:10B0F000DAB9B5F81A349BB2BBB10A2380212046D5
:10B10000CDF80090FCF7DCFF00289ED1B5F81A348A
:10B110009BB2FF2B16D9FF224FF08073A5F818249D
:10B12000009041462046FCF7E9FFB5F81A349BB27F
:10B13000002BBED149462046D2E600BF602901203F
:10B14000502D0120B5F81A244FF0007392B2A5F8E3
:10B150001824D2B20090E4E72DE9F04FB0F1FF3FA0
:10B1600085B08046924603939DF83C3008D0502429
:10B17000AA4E4443351995F8ECB3BBF1000F05D145
:10B180004FF0000B584605B0BDE8F08F3444FF2A5D
:10B190004FEA410704F57C7440F0DA80002B00F0A0
:10B1A000D78095F83134202B75D195F83034012BA8
:10B1B00071D00122D6F8009019234FF4004185F890
:10B1C00030242046CDF80090FCF77AFF002862D1A9
:10B1D0002223C5F8240485F83134102385F832344D
:10B1E0000E9BC5F83404C5F81434039BA5F81A3433
:10B1F000B5F81A349BB2FF2B1DD94FF41053A5F8A4
:10B2000018A4524600934FF08073502539462046CB
:10B2100005FB0865FCF772FFB5F81A349BB2002BEA
:10B2200054D1494620464CF083FA002800F055815D
:10B23000D5F834342FE0B5F81A244FF4105392B2F5
:10B24000A5F81824D2B200934FF00073DDE7494609
:10B2500020464CF035FAC8B9D5F8F0339A6912F0A7
:10B26000200222D02021D9615A6822F0FF7222F4F4
:10B270008B3222F4FF7222F001025A60C5F83404C6
:10B2800085F8300485F8311485F83204502303FB27
:10B290000863D3F83434B6F8DC34404601339BB24B
:10B2A000A6F8DC34FFF788FC6AE73368A3EB0903F0
:10B2B0000A2B0BD9D5F8343485F8302443F0200319
:10B2C000C5F83434202385F83134DFE7D5F8F0337E
:10B2D0009A695207BBD55A6AD5F81434591CC5F877
:10B2E00014141A70B5F81824B5F81A34013A013B51
:10B2F00092B29BB2A5F81824A5F81A34002A8BD173
:10B30000B5F81A349BB2002B86D00A238021204640
:10B31000CDF80090FCF7D4FE0028BCD1B5F81A3463
:10B320009BB2FF2B0AD9FF224FF08073A5F8182497
:10B33000009039462046FCF7E1FE6DE7B5F81A2487
:10B340004FF0007392B2A5F81824D2B20090F0E743
:10B35000502505FB086595F83134202B9BD10E9BB9
:10B36000002B98D095F83034012B94D00122D6F8D8
:10B37000009019234FF4004185F830242046CDF881
:10B380000090FCF79DFE0346002884D12221C5F8D9
:10B39000240485F831144FF0400185F832140E99D9
:10B3A000C5F834042046C5F814140399A5F81A14F6
:10B3B0004FF4005100913946FCF7A0FE4946204663
:10B3C0004CF0DAF9024650B1D5F83434502303FB7F
:10B3D0000863D3F83424002283F830245BE7D5F8DF
:10B3E000F03340212046C3F828A00A23CDF800906E
:10B3F000FCF766FE0028E9D1B5F81A349BB2FF2BA2
:10B400000ED8B5F81A244FF4105392B2A5F81824A8
:10B41000D2B200934FF000730AE000BF6029012010
:10B420004FF41053FF22A5F8182400934FF08073B7
:10B4300050253946204605FB0865FCF75FFE0A23C8
:10B44000002204212046CDF80090FCF739FE0028A8
:10B450007FF421AFD5F8F033596AD5F81434581C6D
:10B46000C5F814041970B5F81834B5F81A14013B6E
:10B4700001399BB289B2A5F81834A5F81A14E3B9BA
:10B48000B5F81A349BB2C3B10A2380212046CDF807
:10B490000090FCF715FE00287FF4FDAEB5F81A34D5
:10B4A0009BB2FF2B0FD9FF224FF08073A5F8182411
:10B4B000009039462046FCF721FEB5F81A349BB2BD
:10B4C000002BBCD1ADE6B5F81A244FF0007392B250
:10B4D000A5F81824D2B20090EBE7D5F8F03320217C
:10B4E000D9615A6822F0FF7222F48B3222F4FF7283
:10B4F00022F001025A60502385F8311403FB0866DC
:10B50000002385F8320486F830343BE60348D0F84F
:10B51000183213B100F5037018477047000001207E
:10B520000348D0F8383213B100F50B701847704754
:10B53000000001200348D0F8583213B100F5137011
:10B5400018477047000001200348D0F8783213B143
:10B5500000F51B7018477047000001200348D0F821
:10B56000983213B100F5237018477047000001208E
:10B570000348D0F8B83213B100F52B701847704764
:10B58000000001200348D0F8D83213B100F5337021
:10B5900018477047000001200348D0F8F83213B173
:10B5A00000F53B7018477047000001200348D0F8B1
:10B5B000183313B100F5437018477047000001209D
:10B5C0000348D0F8383313B100F54B701847704773
:10B5D000000001200348D0F8583313B100F5537030
:10B5E00018477047000001200348D0F8783313B1A2
:10B5F00000F55B7018477047000001200348D0F841
:10B60000983313B100F563701847704700000120AC
:10B610000348D0F8B83313B100F56B701847704782
:10B62000000001200348D0F8D83313B100F573703F
:10B6300018477047000001200348D0F8F83313B1D1
:10B6400000F57B70184770470000012038B544684A
:10B6500044F4805444603BB9012004E0013C05D12E
:10B66000FCF7BBFD002038BD40F2E9348568AD072A
:10B67000F4D56AB112F8014B047340F2E9348568DD
:10B68000ED0707D5C46809B101F8014B013BE2E7BA
:10B69000FF24F1E7013CF2D1E2E70023054A52F82A
:10B6A0003310814201D1D8B2704701330E2BF6D14D
:10B6B000FF207047786D06080023064A52F83310C1
:10B6C000814201D1D8B2704701330E2BF6D1FE2052
:10B6D000704700BF786D060870B507EE902A0E46D9
:10B6E000002800F087800368F8EE677AD3E9003518
:10B6F0001C68414B93ED6F7AB8EE477A87EE270AC4
:10B70000DFED3E7A30EE270A50F086F92B680138DB
:10B71000711E9C4280B289B205D16B68834202D10E
:10B72000EB688B4266D00023E960C5E90433AB6067
:10B730008023C5E90040AB6128464EF029FD304B1F
:10B740009C4216D0B4F1804F13D0A3F57C439C42A9
:10B750000FD003F580639C420BD003F580639C42BD
:10B7600007D003F578439C4203D003F570539C4205
:10B7700040D195F83C30012B3CD0022385F83D3078
:10B78000204BA2681340A360A36823F4803323F006
:10B790000703A360012385F83D30002385F83C3082
:10B7A000174B9C4212D0B4F1804F0FD0A3F57C43CD
:10B7B0009C420BD003F580639C4207D003F5806365
:10B7C0009C4203D003F578439C4213D10C49636833
:10B7D0008C42A26803D001F580618C4201D123F430
:10B7E000700323F0700322F0800263600023A260E4
:10B7F00085F83C3070BD00BF000001200AD7233C13
:10B80000000001408800FEFF2DE9F843074600686C
:10B81000FFF752FF0D28054607DD254A00210520C8
:10B8200003F0BCF90020BDE8F883DFF890904FEA00
:10B83000800809EB8004D4F8E0643EBB072168204F
:10B8400003F010FA0146C4F8E00408B9194AE6E723
:10B850003146682255F07CFC174B29B2D4F8E044FD
:10B8600003F1580203EBC503A46002EBC102986D1B
:10B8700024622260A4632465FFF71EFF0D289EBF8B
:10B8800009F5A36603B206EB83166660C1447979B5
:10B8900018220020D9F8E03402FB0134C4E9040086
:10B8A000E76001FB0224185502FB01300830BAE7BB
:10B8B0008E250708B3250708206D0608602901209A
:10B8C00043680268F0B5526858799C79964BC4F386
:10B8D0004004034492F83C00012893F8C83017D084
:10B8E00001200C2B82F83C004FF0020082F83D0052
:10B8F00000F0C8800DD8042B67D0082B00F0928090
:10B90000002B32D0012382F83D30002382F83C30F6
:10B91000F0BD102B00F0DD80142BF3D11368186AF2
:10B9200020F4801018621D6A5E6825F40015586DB9
:10B9300045EA445420F080707C4D20F4E040AB4256
:10B9400040F4C04003D005F58065AB4201D146F418
:10B9500080265E605865D9651C62596D41F40061AE
:10B960005965596D21F48061D9E013686F4F186AE9
:10B97000BB4220F001001862186A5E689D6920F0E1
:10B98000020025F4803540EA440025F0730545F0B7
:10B99000600503D007F58067BB4207D120F008009F
:10B9A00046F4407640EAC40020F004005E609D61E9
:10B9B00059631862996941F008019961996921F008
:10B9C00004019961996999619CE71368574F186A56
:10B9D000BB4220F010001862186A5E689D6920F072
:10B9E000200025F0807540EA441025F4E64545F432
:10B9F000C04503D007F58067BB4207D120F0800027
:10BA000046F4406640EAC41020F040005E609D614C
:10BA100099631862996941F400619961996921F407
:10BA20008061CEE71368414F186ABB4220F48070F2
:10BA30001862186A5E68DD6920F4007025F48035AC
:10BA400040EA442025F0730545F0600503D007F572
:10BA50008067BB4207D120F4006046F4405640EABC
:10BA6000C42020F480605E60DD61D9631862D9690A
:10BA700041F00801D961D96921F00401D961D9697E
:10BA8000D9613FE71368186A20F4805018621D6A74
:10BA90005E6825F40055D86945EA443420F080708A
:10BAA000224D20F4E640AB4240F4C04003D005F5FF
:10BAB0008065AB4201D146F480465E60D86119646E
:10BAC0001C62D96941F40061D961D96921F48061AE
:10BAD000D4E71368186A20F4803018621D6A5E6823
:10BAE00025F40035586D45EA444420F480300F4D6C
:10BAF00020F07000AB4240F0600003D005F5806597
:10BB0000AB4201D146F480365E60586599651C628F
:10BB1000596D41F008015965596D21F004015965CD
:10BB2000596D5965EEE600BF206D06080000014022
:10BB300043685A79032A0FD8DFE802F00205080BA0
:10BB400018683430704718683830704718683C30CF
:10BB5000704718684030704700207047D0E90032C5
:10BB600051795868054B0B4493F8C81093795B07DB
:10BB700001D54EF094B94EF0A6B900BF206D06086D
:10BB80002DE9F84343680446264F88461B69C3F3F2
:10BB9000032307EB83031E6AC3685D68EFF3118913
:10BBA000102383F312884268284611685279CB68C3
:10BBB00007EB4202B2F8402002F4F05223EA0203FB
:10BBC000CB603146FEF72AFDE3681A6959682023E5
:10BBD0001F2A24D9203A9340CB605FFA89F989F370
:10BBE000118837442046FA7D67692A4453686FF309
:10BBF0000F0343EA08035360FFF79AFF0A4B9B5D6C
:10BC00005A19D7609060EA5842F01002EA50EA5898
:10BC100042F00102EA5001232374BDE8F883934007
:10BC20008B60DAE7206D0608376D06080268137E20
:10BC3000012B26D1022313764FF4007392F83010B3
:10BC4000012904D1022143F4806382F8301092F874
:10BC50004810012904D1022143F4006382F84810FE
:10BC600092F8601001290ED1022143F4805382F82A
:10BC700060101268002112685162D1680B43D360D2
:10BC800003E00023DAE7002BF3D17047024B0348AF
:10BC9000D3F8E014FCF7FEBF60290120000001404A
:10BCA00010B5064C0648D4F8E014FCF7F3FFD4F8BE
:10BCB00004150448BDE81040FCF7ECBF60290120E2
:10BCC0000000014000440140034B4FF08040D3F896
:10BCD000E414FCF7DFBF00BF60290120024B0348DA
:10BCE000D3F8E814FCF7D6BF602901200004004017
:10BCF000024B0348D3F8EC14FCF7CCBF60290120B9
:10BD000000080040024B0348D3F8F014FCF7C2BF10
:10BD100060290120000C0040024B0348D3F8FC14BA
:10BD2000FCF7B8BF602901200004014010B5064CA3
:10BD30000648D4F8FC14FCF7ADFFD4F810150448FD
:10BD4000BDE81040FCF7A6BF6029012000040140B7
:10BD5000001C004010B5064C0648D4F8FC14FCF753
:10BD600099FFD4F814150448BDE81040FCF792BFC1
:10BD7000602901200004014000200040024B0348DC
:10BD8000D3F80015FCF786BF602901200040014070
:10BD9000024B0348D3F80815FCF77CBF602901204B
:10BDA00000480140024B0348D3F80C15FCF772BF62
:10BDB0006029012000180040404B8EB01A6B42F4FD
:10BDC00080221A631A6B02F480220092009A1A6B86
:10BDD00042F480121A631A6B02F480120192019AE3
:10BDE0001A6B42F480021A631A6B02F48002029208
:10BDF000029A1A6B42F000521A631A6B02F0005258
:10BE00000392039A1A6B42F080421A631A6B02F093
:10BE100080420492049A1A6C42F400321A641A6C3A
:10BE200002F400320592059A1A6C42F480221A64D8
:10BE30001A6C02F480220692069A1A6C42F40022CE
:10BE40001A641A6C02F400220792079A1A6C42F4E0
:10BE500080121A641A6C02F480120892089A1A6C02
:10BE600042F080421A641A6C02F080420992099AE8
:10BE70001A6C42F000421A641A6C02F000420A92F4
:10BE80000A9A5A6C42F010025A645A6C02F010027C
:10BE90000B920B9A5A6C42F020025A645A6C02F0D0
:10BEA00020020C920C9A5A6C42F400625A645B6C49
:10BEB00003F400630D930D9B0EB0704700380240F1
:10BEC000074B03EB8003D3F8CC3033B193F8AD20AC
:10BED0004A7093F8AC300B7070474B70FBE700BFB3
:10BEE000206D06082DE9F84317462B4A994605466A
:10BEF00002EB8003D3F8CC408CB304F1AE03EC32F8
:10BF000094F8AD00261DA36104F5D7736260E36168
:10BF10004FF48073E160C4E904332368C4F8A830A7
:10BF2000A36305F03DFC19F0080F94F8AC8019D01C
:10BF30000135EDB218B140F20673C380057294F872
:10BF4000B622022105F006FCD4F8B81294F9B70223
:10BF50004BF08CFC94F9B7023446FDF7D3FF204632
:10BF6000BDE8F883BA070BD56B1CDBB218B140F201
:10BF700006520372C28094F8B622022105F0EAFB51
:10BF8000FB07E1D50135404605F00AFCEDB200287B
:10BF9000D5D040F20663D0E7206D06080148FCF7D3
:10BFA0003BBF00BF100401200148FCF735BF00BFB4
:10BFB000CC0601200148FCF72FBF00BF88090120F3
:10BFC0000148FCF729BF00BF440C01200148FCF7E1
:10BFD00023BF00BF000F01200148FCF71DBF00BFB9
:10BFE000BC1101202DE9F0412423456B82680446F1
:10BFF00080F89D3000F134072B6823F001032B609B
:10C0000000232B606B60AB6082638279467991027A
:10C01000C0F8A03006F0010880F89D3001F480518E
:10C0200016F0020680F89E30C1634FEA023180F8B4
:10C030009C3001F40051C36443654FEA88030164F6
:10C040004FEA022118BF43F0080301F480618364C2
:10C05000D307416411D5B8F1000F06D0836D43F0CA
:10C06000020383654FF48033036636B1A36D43F05A
:10C070000103A3654FF40033E365242312F0080F96
:10C0800094F89D20384684F89D302B6823F00103F6
:10C090002B6035D0FEF7B8F9012817D0A36D13B186
:10C0A0003846FCF745F86B6823F490436B60AB6847
:10C0B00023F02203AB60AB6843F00803AB60384663
:10C0C0002B6843F001032B604DF090FEB8F1000F98
:10C0D0000DD0D4F8A4301A6842F480721A609A68BD
:10C0E00042F001029A601A6842F020021A602EB1F2
:10C0F000D4F8A420136843F080031360BDE8F081F6
:10C10000FEF782F90128E1D0A36D13B13846FCF7A0
:10C110000FF86B6823F490436B60AB6823F02A033D
:10C12000CCE781605EE741715CE781715AE710B549
:10C130001C2005F035FB0446112105F0E5FA2046E8
:10C1400005F02AFAC82008F055FC2046BDE810404A
:10C1500003F047BF7B4B2DE9F04FD3F8985887B0D9
:10C160006B6913F00103029340F09B856A69AB6928
:10C170001A4200F096856B69AA6913409B0701D5A6
:10C1800002236B616B69AA6913401F0300F1DE8013
:10C190006C4CD4F898385A6999690A40560312D5FC
:10C1A000D3F8182803F5006304F6980805F5106A1B
:10C1B000DB69002613401FFA83FBD4F89828BBF1F3
:10C1C000000F40F05F83D4F898687269B3691A422F
:10C1D00016D5D5F8043823F00103C5F8043894F8CF
:10C1E000843C012B15BFD4F8943C002393F8FD2127
:10C1F00084F8843C18BF83F8FC214FF0004373613E
:10C200007369B269134019050FD5D5F80838DA07F4
:10C2100008D5D4F8943C93F8FC2183F8FD2104223E
:10C2200083F8FC214FF4006373617369B269454F71
:10C23000134013F0006F0FD04FF00063736197F855
:10C24000843C002B40F02D84012387F8843C736DDF
:10C25000C3F38303C7F8883C7369B2691340DB04F6
:10C260003ED5D5F804381021304605F5006823F096
:10C270000103C8F804304DF0D0FBD7F89C0805F551
:10C2800010630022FF21824240F016844FF0FF33FA
:10C29000C8F81830D8F81C3043F00113C8F81C3027
:10C2A000D7F8C838002B00F00E84D8F8843043F05B
:10C2B0000B03C8F88430D8F8443043F00B03C8F8B7
:10C2C0004430D5F8003830461F4A23F4FE6394F812
:10C2D000A818C5F800384DF036FB4FF48053736151
:10C2E0007369B2691340980440F15D84D6F800394F
:10C2F0006FF30A03C6F8003906F500639A6802F086
:10C300000602042A05D1D6F8002942F00302C6F835
:10C3100000295A6842F480725A60F26822F470521E
:10C32000F2609A6812F0060F40F0E0830023C4F830
:10C33000A4384FF40073C4F8AC38F36843F41053D6
:10C34000F6E300BF60290120B4350120D5F8183884
:10C3500005F53069D5F81C284FF00008AB4F1340A5
:10C36000A7F698061B0C0193019AD6F89838002A74
:10C370003FF40EAF019A12F0010A00F03C8103F580
:10C38000306203F5006302EB481292685B69134068
:10C39000D80703933DD50123C9F80830D6F8A8384B
:10C3A000012B0DD1D9F81030D7F80022C3F31203B6
:10C3B000D31AC7F81032D7F804321344C7F804323E
:10C3C000D6F8944CD7F80422B8F1000F69D1D4F80C
:10C3D000F431032B0FD1D4E94313994253D9C91A2D
:10C3E000D4F830028B42C4F80C1128BF0B464146EA
:10C3F0009BB24DF063F9D6F8A818012909D1D6F8F7
:10C40000A43A58EA030304D1814AD6F898084DF0BB
:10C410009AFA039B190740F1E280D6F8944C012167
:10C4200096F854CC04F5027B84F808C296F855ECD3
:10C4300084F809E2B6F8563CA4F80A32B6F8580C6B
:10C44000A4F80C02B6F85A2CC4E97D120CF01F01B6
:10C45000A4F80E22012900F04C81022900F05E812F
:10C46000002940F00C82BEF1090F00F29180DFE854
:10C470001EF0190135018F002A018F008900260066
:10C480008F000901D100D4F814321B692BB194F844
:10C49000FC21032A01D12046984720464DF011FA8D
:10C4A000A9E7D4F814329B69002BA4D094F8FC219E
:10C4B000032AA0D15FFA88F1204698479BE71A0A21
:10C4C000013A062A64D8DFE802F0041D2A63634AB1
:10C4D0005300D4F810321B680DF11601207C9847E8
:10C4E000BDF81620002A77D0B4F80E32002B73D096
:10C4F0009A42014628BF1A46ADF8162020464DF054
:10C50000E9F969E0227CD4F8143232B99B6A0DF162
:10C510001600984702234370E2E7DB6AF7E7DBB2D5
:10C52000052B35D8DFE803F003070B0F1317D4F8FA
:10C5300010325B68D0E7D4F810329B68CCE7D4F8AF
:10C540001032DB68C8E7D4F810321B69C4E7D4F8AE
:10C5500010325B69C0E7D4F810329B69BCE7237CDA
:10C56000B3B9D4F814320DF116005B6B9847B7E7F6
:10C57000237C6BB9D4F814320DF116001B6B98476D
:10C580000723C8E7104303D194F8FC21032A01D103
:10C59000204667E003F07F0AD4F8303284F8FEA129
:10C5A00093F8B823012A0ED01A68D2F8001821F4A3
:10C5B000FE61C2F80018D2F8001841EA0A11C2F868
:10C5C000001883F8B80320464DF07BF9BAF1000F4C
:10C5D0001AD0022384F8FC310823C9F80830039BE1
:10C5E000DC0602D51023C9F80830039B980602D553
:10C5F0002023C9F80830019B08F1010809F120093E
:10C600001C375B080193AFE60123E3E7F831012013
:10C61000B4350120D9B2DFF8D0A401298AF8981CDA
:10C62000B6D894F8FC31022B0FD0032BB0D1E1B96E
:10C6300002232046616084F8FC31D4F814325A6831
:10C64000904720464DF03DF9C6E70029F9D0012179
:10C650000323616084F8FC312046FBF735FE022895
:10C660002046EFD14DF0CCF9B6E761680129E8D05A
:10C67000D4F81432C9B220465B6898479AF8981CDF
:10C680006160E9E7012A83D194F8FC31022B04D0E0
:10C69000032B7FF47DAF211D30E72146002341F8B5
:10C6A000083F2BE794F8FC31023B012B3FF670AFBB
:10C6B000D4F8043221460222002B18BF4FF0030A9F
:10C6C00041F80CAF1AE7012B86D1C4F80432D4F834
:10C6D0001432594620469B689847B2E794F8FC21EB
:10C6E000023A012A3FF654AF012B7FF475AF0023C5
:10C6F000EBE794F8FC31032B7FF44AAFC0B2032878
:10C700003FF646AFD4F81432594620469B68984706
:10C71000B4F80E32002B7FF45FAF92E70CF0600CA0
:10C72000C1B2BCF1200F06D1D4F8143259462046CC
:10C730009B68984750E7BEF1010F44D0BEF1030F4C
:10C7400031D0BEF1000F7FF447AF94F8FC31022BDB
:10C7500000F08D80032B7FF41BAF40B21023002824
:10C76000B5BF01F07F0203FB014303FB024303F566
:10C770008273D4F83022B8BF143300284FF01C0065
:10C78000B5BF01F07F0100FB012200FB012192F8FF
:10C79000FA21B8BF91F83A201946003A18BF012291
:10C7A0001A600222AAE694F8FC21022A5FD0032A2A
:10C7B0007FF4EEAE002B8AD14A0688D0D4F830023E
:10C7C0004DF0E0F883E794F8FC21022A4FD0032AC9
:10C7D0007FF4DEAE002B7FF4FFAE11F07F0C3FF450
:10C7E00030AF40B2D4F830221C230028B4BF03FB82
:10C7F0000C2103FB01214FF00003B4BF383101F5D8
:10C80000FC718B70C30F81F800C04B7092F8B83385
:10C81000012B3FF45CAF012300284FF0200082F889
:10C82000B833136817DA91F803C003F51063097879
:10C83000ACF1020C10FB0133BCF1010F196821F4BB
:10C840000011196003D8196841F080511960002364
:10C8500082F8B8333BE703F5306310FB0C331868FC
:10C8600020F400101860C97802390129EAE74B0664
:10C870003FF4B2AED4F830024DF084F8ACE60CF0E0
:10C880008001F7E71BF0010F00F0A380D2F8101829
:10C8900002F5106252F8CC3C700102EB461223FA0A
:10C8A00006F9019092684FEAC9195FFA89F949EAD5
:10C8B000010909EA020919F0010F45D00122D5F852
:10C8C000343802FA06F023EA0003C5F83438D4F805
:10C8D000A838CAF80820934202BFD8E910239B1851
:10C8E000C8F84430D4F8947CD8F84420002E40F0A6
:10C8F000A080D7F8F431022B12D1D7E907318B424F
:10C9000070D95B1AD7F830023146FB619BB24CF00C
:10C910000BFF334632463146D7F830024CF0CEFE9C
:10C9200097F80032012B02D1002387F80032D4F8A7
:10C93000A818D4F89808012906D1D4F8E43833436C
:10C9400002D1684A4CF0FFFF19F0080F02D008230B
:10C95000CAF8083019F0100F02D01023CAF80830B6
:10C9600019F0400F02D04023CAF8083019F0020F26
:10C9700002D00223CAF8083019F0800FD4F89808C2
:10C9800027D000F5805100F51067D8E9133201EB8C
:10C99000063C9B1AD8F84020710193423944A8BF45
:10C9A00013460191DA1C48BF9A1D921001998969BA
:10C9B00089B2914203D9D8E91312914248D8002B89
:10C9C00007DC0122D0F83438B24023EA0203C0F871
:10C9D000343801364FEA5B0B08F11C080AF1200AD3
:10C9E000FFF7EBBBBB69B3FBF1F201FB12327AB983
:10C9F00099420DD8D7F8F821934209D233463246EE
:10CA00003146D7F830024CF08FFEC7F8F86180E766
:10CA1000D7F81432DB682BB197F8FC21032A01D137
:10CA2000384698470523C7F8F43100231A461946BB
:10CA300072E7D7F814325B69002B3FF478AF97F8B0
:10CA4000FC21032A7FF473AFF1B2384698476EE7B2
:10CA50008A1AD8F840302449934291F8A818A8BF00
:10CA60001346DA1C48BF9A1D921051B1D8F84410F1
:10CA70001944C8F84410D8F850101944C8F8501098
:10CA800094E71FFA83FED8F844900EF1030E4FEAA4
:10CA9000AE0E8E45EAD059F821700131CCF8007005
:10CAA000F7E7D7F8943C93F8FC2183F8FD210422A2
:10CAB00083F8FC21FFF7D0BB99600132C3F808125C
:10CAC0002033FFF7E0BBD8F8143043F02B03C8F84D
:10CAD0001430D8F8103043F00B03C8F81030FFF7CB
:10CAE000F0BB00BFB4350120602901209A6802F034
:10CAF0000602022A0AD09A6802F00602062A05D027
:10CB00009B6803F00603042B7FF410AC03239C4ABC
:10CB10009C49C4F8A4384023C4F8AC389A4BD3F8E5
:10CB2000BC311A448A4200F2BF80F36843F4705368
:10CB3000964A4FF04009F360D2F8A438D2F8946CCA
:10CB40000022B3F100084FF040031146D6F830023E
:10CB500018BF4FF001084CF049FE4B4600228021DF
:10CB6000D6F83002C6F810914CF040FE0123C6F80A
:10CB7000209086F8FC31D6F818322BB9D6F820323E
:10CB800013B9D6F828322BB1D6F8143230463179A1
:10CB90005B689847D4F8943C4FF4005283F81080B7
:10CBA000D4F898385A61D4F89828536991690B40A1
:10CBB000D90631D5936923F0100393612B6A03F4EE
:10CBC000F01103F00F00B1F5802F40F0C28047F65E
:10CBD000F0710B421CD01C21C3F30A1305F58055DC
:10CBE00001FB0041D1F89C6AD91C4FEAA10E0299C1
:10CBF0008E4540F0A6801C2101FB0041D1F89C0A23
:10CC00001844C1F89C0AD1F8A80A1844C1F8A80A27
:10CC1000936943F0100393615369926913401B07B2
:10CC20000ED5D7F8940C90F8FC31032B04D1D0F832
:10CC30001432DB6903B19847D7F8983808225A6153
:10CC4000D4F89828536991690B40DE0202D54FF45D
:10CC500080135361536991690B409D0202D54FF4D3
:10CC600000135361536991690B40580002D54FF08E
:10CC700080435361536991690B40590711D5556839
:10CC80006B0709D5D4F8940C012380F8FC31D0F857
:10CC9000143201795B689847D7F898385A68154379
:10CCA0005D6007B0BDE8F08F394A3A491A448A42BC
:10CCB00003D8F36843F460533AE7A3F574023649A6
:10CCC000A2F510528A4203D8F36843F450532FE779
:10CCD000A3F183723149A2F5E7428A4203D2F36895
:10CCE00043F4405324E72E4A2E491A448A4203D87B
:10CCF000F36843F430531BE72B4A2C491A448A4209
:10CD000003D2F36843F4205312E7294A29491A440D
:10CD10008A42FFF412ABA3F1B7722749A2F5585229
:10CD20008A4203D2F36843F4005301E7234A1A44CA
:10CD3000234B9A42F36834BF43F4E05343F4C053A7
:10CD4000F6E60299D5F800C046F821C001310291FB
:10CD50004DE7B1F5402F7FF45BAF05F58055C3F388
:10CD60000A132968C4F8541C2968C4F8581C1C21EB
:10CD700001FB0041D1F8A80A0344C1F8A83A47E7EB
:10CD8000405327FFFF340C000000012060290120E0
:10CD9000401E1BFF3F420F007F4F120020D61300A2
:10CDA00060B6E5FE5FE3160000D3CEFE40771B00C1
:10CDB000C05BB3FEC091210020753800E05459FEDD
:10CDC000E09C41002DE9F041474DD5F888422369A8
:10CDD0009E0709D5E368980706D56FF00203236123
:10CDE000A369002385F8A4322369590709D5E368AC
:10CDF0005A0706D56FF004032361A369002385F861
:10CE0000A43223691B0709D5E3681F0706D56FF015
:10CE100008032361E369002385F8A4322369DE0651
:10CE200009D5E368D80606D56FF010032361E369DE
:10CE3000002385F8A4322369D9072FD5E368DA07E0
:10CE40002CD56FF001032361284B9C4226D1D5E9F4
:10CE50009167BE4222D0D5F820328CBFC6F58057EC
:10CE6000BF1B234AD3F814823244B9B2C3F8082254
:10CE7000C3F81012B8F1000F10D101213E44D5F8CB
:10CE80003802C3F81412BBB281214CF04DFCB6F548
:10CE9000805F14BF33464346C5F8443223691B06FE
:10CEA00005D5E3681F0602D56FF08003236123696F
:10CEB000DE0505D5E3681D0602D56FF0800323610A
:10CEC0002369580605D5E368590602D56FF040037B
:10CED000236123699A0605D5E3689B0602D56FF0A6
:10CEE00020032361BDE8F081602901200014004087
:10CEF000286A01202DE9F041114E04460D46D6F86E
:10CF00002022D2F81432002BFBD16719DFF83480CD
:10CF1000BC4202D12846BDE8F081D6F8483214F868
:10CF2000012B08F803200133C3F30B03C6F8483282
:10CF3000FBF7BAFA0028EBD1012007F05BFDF7E719
:10CF400060290120286A0120F8B50D461446FBF738
:10CF5000ADF978B1084ED6F89C7C002C0ADD21464C
:10CF60002846FFF7C7FFD6F89C3C241A0544DB1B74
:10CF7000322BF2D9F8BD00BF6029012070472DE99E
:10CF8000F04F4FF000088FB032F044F9DFF82893EB
:10CF900032F018F94746054646464446B54228DC75
:10CFA000642F40F0D080642768234FF04C09DFF8ED
:10CFB000F482B44A002109FB03F4D8F84C6108EB71
:10CFC0000403C2F87C634A46184654F0C1F84A4646
:10CFD000002154F0BDF8AC4A7B1D48F80420012222
:10CFE00046628260A94AC0E904558262C0E90766C8
:10CFF000CAE0202206A9304632F0CAF81222A4491B
:10D0000006A852F0BFFF0090002840F08A80A64298
:10D010001DD0A0490C207A1CCA4600FB07179E4968
:10D020000192A6EB040B384601F0A2FD01214AF85B
:10D030004C7B019AC9E9021494491746C9F8281093
:10D04000D9F81C10C9E904BBC9E90811D1468D4BB8
:10D050003446D3F87C23C9F81C20122202F138038D
:10D06000501C0DEB03028D4B12F8201C13F8082006
:10D07000914259D108F10108B8F1150F56D1204459
:10D080000024202206A9A246A34632F081F805AA70
:10D09000834906A852F0C8FB0394CDE9014430B39C
:10D0A0000BF1FF32042A04D8DFE802F00E12161A40
:10D0B0001E0002F09DF9824605AA794900200BF175
:10D0C000010B52F0B1FBEAE702F092F90390F3E7AB
:10D0D00002F08EF90190EFE702F08AF90290EBE797
:10D0E00002F086F90446E7E702F082F90090BAF10F
:10D0F000000F12D0019B6401039AAAF2BC7A43EAA2
:10D100004212029B44EAC324009B42EA4A2A44EAB0
:10D11000630444EA0A44C9F81C40642F3FF443AF57
:10D12000344606F5006639E74FF00008202808D19C
:10D130002034A542F1DB024606A9204632F028F849
:10D14000002002468AE7A64219D0A6EB04080C216B
:10D15000504E01FB076601374F493A46304601F011
:10D1600007FD0122C9F80060C9E90224474AC9F84D
:10D170002820D9F81C20C9E90488C9E90822002F11
:10D1800007F104033FF711AF3E4A464CD2F87C73D7
:10D190006A00B2F1805F1BDA4FF04C080021C5F144
:10D1A000006508FB03F64246A319184653F0D0FF6A
:10D1B0004246002153F0CCFF3B4AA2510222476273
:10D1C0004271012295408260C0E90455C0E90777A9
:10D1D0004FF498723549334852F09AFB314B042191
:10D1E0001A4601395762C2E9077702F14C02F8D1B9
:10D1F000A568002D43D12279002A40D02268002A58
:10D200003DD00F4627488C462164E163C4E91111E3
:10D21000C66C00F14C02002E50D102221868002882
:10D2200078D1901E224B234AC2F85C323F23C2F8C9
:10D2300084523E25C2E998534023C2E99D01C2F8B9
:10D240006832810F8300002800F08E8040F2FF15C5
:10D250005B1941F100015B0A43EAC15303F140014C
:10D260000B44C2F86C12C2F8703203EBC003D90D44
:10D27000C2F858325B02C2E99F44C2E994310FB050
:10D28000BDE8F08FF810012009260708DD9E000890
:10D29000CD25070800360120E0250708EE25070800
:10D2A00004260708B03A012016260708406E060833
:10D2B0002326070860290120E03B0120966807F13A
:10D2C000FF3EC2F840C07645C2F83CC0C2E911CC6E
:10D2D00004D1002FD3D052F80C0C374607F1010EC1
:10D2E000764507D10679002EC9D04264106477468E
:10D2F00010468DE7BE42C2D1002EC0D0D0F840E02B
:10D30000DEF83C700137CEF83C70C2F840E0B6461B
:10D310008264ECE71F79501E9FB11A63DA6B5201E9
:10D3200016BF02F6FF720122120B0244C3E9046623
:10D330005A631144586B9A630135091A01324C3310
:10D340006CE71A631A695AB102F6FF72120B0244B3
:10D350005A635A6932B102F6FF72120B0244E8E7CF
:10D360000122F4E70122F9E7012377E7F0B59C08F1
:10D370000E461546270100EB0414A04206F11006E4
:10D3800005F1100508D103F0030339443A4404EBD6
:10D3900083039C4223D1F0BD844616ED045AD0EDA0
:10D3A000016A10309CED006A56ED037A26EE056A9C
:10D3B00010ED027A56ED025A66EEA76A50ED017A38
:10D3C00005ED046A27EE257A16ED016A45ED036A3C
:10D3D00067EE867A05ED027A45ED017ACDE7F4EC49
:10D3E000017AB1EC017A67EE877AE2EC017AD0E754
:10D3F000704790F83C20034602F0FF0012B1002273
:10D4000083F83C207047007970470079C0F34010E2
:10D410007047007940097047704703685A1C0260E2
:10D420001970704703690133012B036108D1DFEDE7
:10D43000117A80ED010A80ED000AC0ED027A704792
:10D4400090ED006A07EE903A70EE466AF8EEE77AE1
:10D4500086EEA77AD0ED027A37EE067A30EE470AEA
:10D4600080ED017AE6EE807AB0EE470AC0ED037AED
:10D47000E1E700BF0000000003685A1C0260197059
:10D4800070474FF40063838170474FF400638381DA
:10D4900070474FF4006383817047064A04230021DC
:10D4A00010B552F8044B844208BF42F8041C013BFB
:10D4B000F7D110BD287A0120012070470120704764
:10D4C0002DE9F74F5F4E904689463269B38AB6F927
:10D4D00024C0C3EB2215B6F922705B00B6F920B068
:10D4E0006D43C3EBE203B6F916202D135343B6F98F
:10D4F00018205543AD1305EBE325336BA5F5FA3042
:10D500000093B6F91E3080FB001EDA17F56203FBAC
:10D510000EF401FB0244A3FB01321444B6F91C20B3
:10D520001B0A82FB00A243EA0463120342EA1A5276
:10D530004FEA0A3A13EB0A03B6F81AA042EB242288
:10D54000002402F500420192A3FB0A23019A0AFB80
:10D55000023A4FEAEA734FEA6A0253EA6A0A5ED075
:10D5600087FB00704FEAEC7A0CFB0EFE400401FBD7
:10D570000AEE40EAD730ACFB011C7F04F4447F186C
:10D5800000994CEB0000C1F5801CE71940F63544CA
:10D590000CF0004100EBCB0041EA5C014FEACC7C8F
:10D5A000BCEB070C61EB0001ACFB040C04FB01C1FC
:10D5B00056F0BEFD84460746430B4A13B6F92A00CF
:10D5C00043EAC14300FB02FEC41703FB04EEA0FBC9
:10D5D00003407044624303FB0022A4FB03431A444C
:10D5E000640EB6F9283044EAC2144FEAE37E03FB26
:10D5F00001F0E419A3FB0C370EFB0C004FEAD343F8
:10D60000384441EB626243EA4033E418B6F926300D
:10D6100042EBE042240A44EA026404EB0314B9F149
:10D62000000F02D0240AC9F80040B8F1000F05D05D
:10D6300005EB850580352D12C8F80050012003B098
:10D64000BDE8F08F287A012031B10A4BD3ED147A6E
:10D65000FDEEE77AC1ED007A52B1064B9FED067AF6
:10D66000D3ED157A67EE877AFDEEE77AC2ED007AA0
:10D6700001207047287A01200000C842012070472D
:10D68000B0F900305943084B994208DBB1F5000F5F
:10D6900007DA0029B8BFFF31081200B2704703480B
:10D6A000FBE747F6FF70F8E701FF7FFF0080FFFF11
:10D6B00001207047044B002201209A65DA651A6642
:10D6C00000225A66704700BF287A01200F4B1A6863
:10D6D0000F4B596E521AFA2A16D8D3ED167AFDEE70
:10D6E000E77A17EE902AD3ED177AFDEEE77AC28635
:10D6F00017EE902AD3ED187AFDEEE77A028717EE3F
:10D70000903A43870120704700207047FC35012084
:10D71000287A012012B10B0E00F8013B0B0C81702E
